{
  "contractName": "BountyRoot",
  "abi": [
    {
      "constant": true,
      "inputs": [],
      "name": "bountyCount",
      "outputs": [
        {
          "name": "",
          "type": "uint256"
        }
      ],
      "payable": false,
      "stateMutability": "view",
      "type": "function"
    },
    {
      "constant": false,
      "inputs": [],
      "name": "unpause",
      "outputs": [],
      "payable": false,
      "stateMutability": "nonpayable",
      "type": "function"
    },
    {
      "constant": true,
      "inputs": [
        {
          "name": "",
          "type": "uint256"
        }
      ],
      "name": "bountyBalances",
      "outputs": [
        {
          "name": "",
          "type": "uint256"
        }
      ],
      "payable": false,
      "stateMutability": "view",
      "type": "function"
    },
    {
      "constant": true,
      "inputs": [],
      "name": "paused",
      "outputs": [
        {
          "name": "",
          "type": "bool"
        }
      ],
      "payable": false,
      "stateMutability": "view",
      "type": "function"
    },
    {
      "constant": false,
      "inputs": [],
      "name": "renounceOwnership",
      "outputs": [],
      "payable": false,
      "stateMutability": "nonpayable",
      "type": "function"
    },
    {
      "constant": false,
      "inputs": [],
      "name": "destroy",
      "outputs": [],
      "payable": false,
      "stateMutability": "nonpayable",
      "type": "function"
    },
    {
      "constant": false,
      "inputs": [],
      "name": "pause",
      "outputs": [],
      "payable": false,
      "stateMutability": "nonpayable",
      "type": "function"
    },
    {
      "constant": true,
      "inputs": [],
      "name": "owner",
      "outputs": [
        {
          "name": "",
          "type": "address"
        }
      ],
      "payable": false,
      "stateMutability": "view",
      "type": "function"
    },
    {
      "constant": true,
      "inputs": [],
      "name": "bountyTokenAddress",
      "outputs": [
        {
          "name": "",
          "type": "address"
        }
      ],
      "payable": false,
      "stateMutability": "view",
      "type": "function"
    },
    {
      "constant": true,
      "inputs": [],
      "name": "exchangeRateOracleAddress",
      "outputs": [
        {
          "name": "",
          "type": "address"
        }
      ],
      "payable": false,
      "stateMutability": "view",
      "type": "function"
    },
    {
      "constant": true,
      "inputs": [
        {
          "name": "",
          "type": "uint256"
        }
      ],
      "name": "bountySubmissions",
      "outputs": [
        {
          "name": "nextId",
          "type": "uint256"
        }
      ],
      "payable": false,
      "stateMutability": "view",
      "type": "function"
    },
    {
      "constant": true,
      "inputs": [
        {
          "name": "",
          "type": "uint256"
        }
      ],
      "name": "bounties",
      "outputs": [
        {
          "name": "poster",
          "type": "address"
        },
        {
          "name": "title",
          "type": "string"
        },
        {
          "name": "description",
          "type": "string"
        },
        {
          "name": "prize",
          "type": "uint256"
        },
        {
          "name": "status",
          "type": "uint8"
        },
        {
          "name": "winner",
          "type": "address"
        },
        {
          "name": "deadline",
          "type": "uint256"
        }
      ],
      "payable": false,
      "stateMutability": "view",
      "type": "function"
    },
    {
      "constant": false,
      "inputs": [
        {
          "name": "_newOwner",
          "type": "address"
        }
      ],
      "name": "transferOwnership",
      "outputs": [],
      "payable": false,
      "stateMutability": "nonpayable",
      "type": "function"
    },
    {
      "constant": false,
      "inputs": [
        {
          "name": "_recipient",
          "type": "address"
        }
      ],
      "name": "destroyAndSend",
      "outputs": [],
      "payable": false,
      "stateMutability": "nonpayable",
      "type": "function"
    },
    {
      "inputs": [],
      "payable": false,
      "stateMutability": "nonpayable",
      "type": "constructor"
    },
    {
      "anonymous": false,
      "inputs": [
        {
          "indexed": false,
          "name": "bountyId",
          "type": "uint256"
        },
        {
          "indexed": false,
          "name": "amount",
          "type": "uint256"
        }
      ],
      "name": "BountyPosted",
      "type": "event"
    },
    {
      "anonymous": false,
      "inputs": [],
      "name": "NewBountyContract",
      "type": "event"
    },
    {
      "anonymous": false,
      "inputs": [
        {
          "indexed": false,
          "name": "bountyId",
          "type": "uint256"
        },
        {
          "indexed": false,
          "name": "submissionId",
          "type": "uint256"
        },
        {
          "indexed": false,
          "name": "payTokens",
          "type": "bool"
        }
      ],
      "name": "AwardedBounty",
      "type": "event"
    },
    {
      "anonymous": false,
      "inputs": [
        {
          "indexed": false,
          "name": "bountyId",
          "type": "uint256"
        },
        {
          "indexed": false,
          "name": "submissionId",
          "type": "uint256"
        },
        {
          "indexed": false,
          "name": "submissionHash",
          "type": "string"
        },
        {
          "indexed": false,
          "name": "payTokens",
          "type": "bool"
        }
      ],
      "name": "PostedBountySubmission",
      "type": "event"
    },
    {
      "anonymous": false,
      "inputs": [
        {
          "indexed": false,
          "name": "bountyId",
          "type": "uint256"
        },
        {
          "indexed": false,
          "name": "submissionId",
          "type": "uint256"
        },
        {
          "indexed": false,
          "name": "destination",
          "type": "address"
        },
        {
          "indexed": false,
          "name": "amount",
          "type": "uint256"
        }
      ],
      "name": "SentEtherToWinner",
      "type": "event"
    },
    {
      "anonymous": false,
      "inputs": [
        {
          "indexed": false,
          "name": "bountyId",
          "type": "uint256"
        },
        {
          "indexed": false,
          "name": "submissionId",
          "type": "uint256"
        },
        {
          "indexed": false,
          "name": "destination",
          "type": "address"
        },
        {
          "indexed": false,
          "name": "amount",
          "type": "uint256"
        },
        {
          "indexed": false,
          "name": "tokenAmount",
          "type": "uint256"
        },
        {
          "indexed": false,
          "name": "exchangeRate",
          "type": "uint256"
        }
      ],
      "name": "SentTokensToWinner",
      "type": "event"
    },
    {
      "anonymous": false,
      "inputs": [
        {
          "indexed": false,
          "name": "message",
          "type": "uint256"
        }
      ],
      "name": "DebugMessage",
      "type": "event"
    },
    {
      "anonymous": false,
      "inputs": [
        {
          "indexed": false,
          "name": "_address",
          "type": "address"
        }
      ],
      "name": "SetNewBountyTokenContractAddress",
      "type": "event"
    },
    {
      "anonymous": false,
      "inputs": [
        {
          "indexed": false,
          "name": "_address",
          "type": "address"
        }
      ],
      "name": "SetExchangeRateOracleContractAddress",
      "type": "event"
    },
    {
      "anonymous": false,
      "inputs": [
        {
          "indexed": false,
          "name": "_sent",
          "type": "uint256"
        },
        {
          "indexed": false,
          "name": "_priceWei",
          "type": "uint256"
        }
      ],
      "name": "DebugPostBounty",
      "type": "event"
    },
    {
      "anonymous": false,
      "inputs": [],
      "name": "Pause",
      "type": "event"
    },
    {
      "anonymous": false,
      "inputs": [],
      "name": "Unpause",
      "type": "event"
    },
    {
      "anonymous": false,
      "inputs": [
        {
          "indexed": true,
          "name": "previousOwner",
          "type": "address"
        }
      ],
      "name": "OwnershipRenounced",
      "type": "event"
    },
    {
      "anonymous": false,
      "inputs": [
        {
          "indexed": true,
          "name": "previousOwner",
          "type": "address"
        },
        {
          "indexed": true,
          "name": "newOwner",
          "type": "address"
        }
      ],
      "name": "OwnershipTransferred",
      "type": "event"
    },
    {
      "constant": false,
      "inputs": [
        {
          "name": "_address",
          "type": "address"
        }
      ],
      "name": "setBountyTokenContractAddress",
      "outputs": [],
      "payable": false,
      "stateMutability": "nonpayable",
      "type": "function"
    },
    {
      "constant": false,
      "inputs": [
        {
          "name": "_address",
          "type": "address"
        }
      ],
      "name": "setExchangeRateOracleAddress",
      "outputs": [],
      "payable": false,
      "stateMutability": "nonpayable",
      "type": "function"
    },
    {
      "constant": false,
      "inputs": [],
      "name": "deposit",
      "outputs": [],
      "payable": true,
      "stateMutability": "payable",
      "type": "function"
    },
    {
      "constant": false,
      "inputs": [
        {
          "name": "_title",
          "type": "string"
        },
        {
          "name": "_description",
          "type": "string"
        },
        {
          "name": "_prize",
          "type": "uint256"
        },
        {
          "name": "_deadline",
          "type": "uint256"
        }
      ],
      "name": "postBounty",
      "outputs": [
        {
          "name": "",
          "type": "uint256"
        }
      ],
      "payable": true,
      "stateMutability": "payable",
      "type": "function"
    },
    {
      "constant": true,
      "inputs": [
        {
          "name": "_bountyId",
          "type": "uint256"
        }
      ],
      "name": "getBounty",
      "outputs": [
        {
          "name": "poster",
          "type": "address"
        },
        {
          "name": "title",
          "type": "string"
        },
        {
          "name": "description",
          "type": "string"
        },
        {
          "name": "prize",
          "type": "uint256"
        },
        {
          "name": "status",
          "type": "uint8"
        },
        {
          "name": "winner",
          "type": "address"
        },
        {
          "name": "deadline",
          "type": "uint256"
        }
      ],
      "payable": false,
      "stateMutability": "view",
      "type": "function"
    },
    {
      "constant": false,
      "inputs": [
        {
          "name": "_bountyId",
          "type": "uint256"
        },
        {
          "name": "_submissionHash",
          "type": "string"
        },
        {
          "name": "_payTokens",
          "type": "bool"
        }
      ],
      "name": "postBountySubmission",
      "outputs": [
        {
          "name": "",
          "type": "uint256"
        }
      ],
      "payable": false,
      "stateMutability": "nonpayable",
      "type": "function"
    },
    {
      "constant": true,
      "inputs": [
        {
          "name": "_bountyId",
          "type": "uint256"
        },
        {
          "name": "_submissionId",
          "type": "uint256"
        }
      ],
      "name": "getBountySubmission",
      "outputs": [
        {
          "name": "submitter",
          "type": "address"
        },
        {
          "name": "submissionHash",
          "type": "string"
        },
        {
          "name": "payTokens",
          "type": "bool"
        }
      ],
      "payable": false,
      "stateMutability": "view",
      "type": "function"
    },
    {
      "constant": true,
      "inputs": [
        {
          "name": "_bountyId",
          "type": "uint256"
        }
      ],
      "name": "getBountySubmissionCount",
      "outputs": [
        {
          "name": "count",
          "type": "uint256"
        }
      ],
      "payable": false,
      "stateMutability": "view",
      "type": "function"
    },
    {
      "constant": false,
      "inputs": [
        {
          "name": "_bountyId",
          "type": "uint256"
        },
        {
          "name": "_submissionId",
          "type": "uint256"
        }
      ],
      "name": "awardBounty",
      "outputs": [],
      "payable": true,
      "stateMutability": "payable",
      "type": "function"
    },
    {
      "constant": false,
      "inputs": [
        {
          "name": "_to",
          "type": "address"
        },
        {
          "name": "_amount",
          "type": "uint256"
        }
      ],
      "name": "sendTokens",
      "outputs": [],
      "payable": false,
      "stateMutability": "nonpayable",
      "type": "function"
    },
    {
      "constant": true,
      "inputs": [],
      "name": "getExchangeRate",
      "outputs": [
        {
          "name": "",
          "type": "uint256"
        }
      ],
      "payable": false,
      "stateMutability": "view",
      "type": "function"
    }
  ],
  "bytecode": "0x60806040526000805460a060020a60ff02191690556001805534801561002457600080fd5b5060008054600160a060020a031916331781556040517fb3a9f450c901173c138555f9bb18877aee719dbc20566c671e26bacce6d5d41d9190a1611acb8061006d6000396000f3006080604052600436106101485763ffffffff7c010000000000000000000000000000000000000000000000000000000060003504166305ab421d811461014d57806308995866146101735780633e362c96146101e75780633f4ba83a146101fc578063467ad96e14610211578063491ba5e7146102295780635713ae791461024a5780635c975abb146102f7578063715018a61461032057806371a569e61461033557806383197ef0146103435780638456cb59146103585780638da5cb5b1461036d578063a587c9f71461039e578063a9144ed0146103b3578063abe13269146103c8578063b0a4eb52146103e0578063b4503e12146103f8578063d0e30db014610419578063dc2f874414610421578063e6aa216c1461056c578063ee8c4bbf14610581578063f2fde38b14610599578063f5074f41146105ba578063fea3de38146105db575b600080fd5b34801561015957600080fd5b50610171600160a060020a0360043516602435610600565b005b34801561017f57600080fd5b5060408051602060046024803582810135601f81018590048502860185019096528585526101d59583359536956044949193909101919081908401838280828437509497505050509135151592506106d3915050565b60408051918252519081900360200190f35b3480156101f357600080fd5b506101d56108a0565b34801561020857600080fd5b506101716108a6565b34801561021d57600080fd5b506101d560043561092d565b34801561023557600080fd5b50610171600160a060020a036004351661093f565b34801561025657600080fd5b50610265600435602435610b05565b60408051600160a060020a038516815282151591810191909152606060208083018281528551928401929092528451608084019186019080838360005b838110156102ba5781810151838201526020016102a2565b50505050905090810190601f1680156102e75780820380516001836020036101000a031916815260200191505b5094505050505060405180910390f35b34801561030357600080fd5b5061030c610bdc565b604080519115158252519081900360200190f35b34801561032c57600080fd5b50610171610bfd565b610171600435602435610c69565b34801561034f57600080fd5b50610171611089565b34801561036457600080fd5b506101716110ae565b34801561037957600080fd5b5061038261114b565b60408051600160a060020a039092168252519081900360200190f35b3480156103aa57600080fd5b5061038261115a565b3480156103bf57600080fd5b50610382611169565b3480156103d457600080fd5b506101d5600435611178565b3480156103ec57600080fd5b506101d560043561118a565b34801561040457600080fd5b50610171600160a060020a036004351661119c565b61017161121f565b34801561042d57600080fd5b50610439600435611221565b6040518088600160a060020a0316600160a060020a03168152602001806020018060200187815260200186600181111561046f57fe5b60ff16815260200185600160a060020a0316600160a060020a03168152602001848152602001838103835289818151815260200191508051906020019080838360005b838110156104ca5781810151838201526020016104b2565b50505050905090810190601f1680156104f75780820380516001836020036101000a031916815260200191505b5083810382528851815288516020918201918a019080838360005b8381101561052a578181015183820152602001610512565b50505050905090810190601f1680156105575780820380516001836020036101000a031916815260200191505b50995050505050505050505060405180910390f35b34801561057857600080fd5b506101d561138b565b34801561058d57600080fd5b5061043960043561141c565b3480156105a557600080fd5b50610171600160a060020a036004351661159e565b3480156105c657600080fd5b50610171600160a060020a03600435166115c1565b6101d560246004803582810192908201359181359182019101356044356064356115e4565b600054600160a060020a0316331461061757600080fd5b600180541461062557600080fd5b6002600155600554604080517f23b872dd000000000000000000000000000000000000000000000000000000008152306004820152600160a060020a03858116602483015260448201859052915191909216916323b872dd9160648083019260209291908290030181600087803b15801561069f57600080fd5b505af11580156106b3573d6000803e3d6000fd5b505050506040513d60208110156106c957600080fd5b5050600180555050565b600080848160008281526002602052604090206004015460ff1660018111156106f857fe5b1461070257600080fd5b6000868152600260205260409020600501548690421061072157600080fd5b6000878152600360209081526040808320805482516060810184523381528085018c81528b15158286015282875260019384018652939095208551815473ffffffffffffffffffffffffffffffffffffffff1916600160a060020a0390911617815592518051919850929361079b93928501920190611a07565b50604091820151600291909101805460ff191691151591909117905560008881526003602090815282822060018701905582518a8152808201879052881515606082015260809381018481528a519482019490945289517fa278d33c0a7d7d9b9443f0e9c29afb4c8a2fff4c68475ba0a7b4f2eac12c6f45948c9489948d948d9490939260a0850192870191908190849084905b8381101561084757818101518382015260200161082f565b50505050905090810190601f1680156108745780820380516001836020036101000a031916815260200191505b509550505050505060405180910390a15050506000938452505060036020525060409020546000190190565b60095481565b600054600160a060020a031633146108bd57600080fd5b60005474010000000000000000000000000000000000000000900460ff1615156108e657600080fd5b6000805474ff0000000000000000000000000000000000000000191681556040517f7805862f689e2f13df9f062ff482ad3ad112aca9e0847911ed832e158c525b339190a1565b60046020526000908152604090205481565b60008054600160a060020a0316331461095757600080fd5b600180541461096557600080fd5b60026001556007805473ffffffffffffffffffffffffffffffffffffffff19908116600160a060020a03858116918217909355600580549092161790819055604080517f18160ddd000000000000000000000000000000000000000000000000000000008152905191909216916318160ddd9160048083019260209291908290030181600087803b1580156109f957600080fd5b505af1158015610a0d573d6000803e3d6000fd5b505050506040513d6020811015610a2357600080fd5b5051600554604080517f095ea7b3000000000000000000000000000000000000000000000000000000008152306004820152602481018490529051929350600160a060020a039091169163095ea7b3916044808201926020929091908290030181600087803b158015610a9557600080fd5b505af1158015610aa9573d6000803e3d6000fd5b505050506040513d6020811015610abf57600080fd5b505060408051600160a060020a038416815290517f5aa20f0608ed7728bbc487ffe081f94f4ea6fb95a9ac81646b1b3a25cf04ffd99181900360200190a1505060018055565b6000828152600360209081526040808320848452600190810183528184208054600280830154838501805487516101009782161597909702600019011692909204601f810188900488028601880190965285855260609688969495600160a060020a0390941694929360ff909216928491830182828015610bc75780601f10610b9c57610100808354040283529160200191610bc7565b820191906000526020600020905b815481529060010190602001808311610baa57829003601f168201915b50505050509150935093509350509250925092565b60005474010000000000000000000000000000000000000000900460ff1681565b600054600160a060020a03163314610c1457600080fd5b60008054604051600160a060020a03909116917ff8df31144d9c2f0f6b59d69b8b98abd5459d07f2742c4df920b25aae33c6482091a26000805473ffffffffffffffffffffffffffffffffffffffff19169055565b60008060008060008060008060018054141515610c8557600080fd5b6002600155896000808281526002602052604090206004015460ff166001811115610cac57fe5b14610cb657600080fd5b60008b8152600260205260409020548b90600160a060020a03163314610cdb57600080fd5b60008c8152600260209081526040808320600383528184208f85526001908101909352922054600483018054939d50600160a060020a039091169b50909160ff19168280021790555060048a8101805474ffffffffffffffffffffffffffffffffffffffff001916610100600160a060020a038d160217905560008d81526020919091526040902054610d6e903461194e565b60008d815260046020526040902081905560038b015498509650610da088670de0b6b3a764000063ffffffff61196116565b60008d81526003602090815260408083208f845260010190915290206002015490965060ff1694508415610f9657600660009054906101000a9004600160a060020a0316600160a060020a0316633ba0b9a96040518163ffffffff167c0100000000000000000000000000000000000000000000000000000000028152600401602060405180830381600087803b158015610e3a57600080fd5b505af1158015610e4e573d6000803e3d6000fd5b505050506040513d6020811015610e6457600080fd5b505160038b0154909450610e7f90859063ffffffff61196116565b60008d815260046020818152604080842084905560055481517f23b872dd0000000000000000000000000000000000000000000000000000000081523094810194909452600160a060020a038f8116602486015260448501879052915195985016936323b872dd936064808501948390030190829087803b158015610f0357600080fd5b505af1158015610f17573d6000803e3d6000fd5b505050506040513d6020811015610f2d57600080fd5b505060038a0154604080518e8152602081018e9052600160a060020a038c168183015260608101929092526080820185905260a08201869052517fe2ad56583b05f7b74db1564aa344639ab4478e7dc091acb4ad7060852c38e5019181900360c00190a1611036565b60008c81526004602052604080822082905560038c01549051600160a060020a038c169282156108fc02929190818181858888f19350505050158015610fe0573d6000803e3d6000fd5b5060038a0154604080518e8152602081018e9052600160a060020a038c16818301526060810192909252517fd54fcaa98e5275906fb3556a6100ca62167f6698d861c0218c3750980befb92e9181900360800190a15b604080518d8152602081018d90528615158183015290517f2dad7e971024f7531f5594ea657698645ecd22dd5481f05483880c25bf92f7ec9181900360600190a150506001805550505050505050505050565b600054600160a060020a031633146110a057600080fd5b600054600160a060020a0316ff5b600054600160a060020a031633146110c557600080fd5b60005474010000000000000000000000000000000000000000900460ff16156110ed57600080fd5b6000805474ff00000000000000000000000000000000000000001916740100000000000000000000000000000000000000001781556040517f6985a02210a168e66602d3235cb6db0e70f92b3ba4d376a33c0f3d9434bff6259190a1565b600054600160a060020a031681565b600754600160a060020a031681565b600854600160a060020a031681565b60009081526003602052604090205490565b60036020526000908152604090205481565b600054600160a060020a031633146111b357600080fd5b60088054600160a060020a03831673ffffffffffffffffffffffffffffffffffffffff199182168117909255600680549091168217905560408051918252517f2cfbb28076854626d3e6258f583977137ff3533496c7e427bcdfcc346940f3ff9181900360200190a150565b565b6002602081815260009283526040928390208054600180830180548751601f60001994831615610100029490940190911696909604918201859004850286018501909652808552600160a060020a03909116949193928301828280156112c85780601f1061129d576101008083540402835291602001916112c8565b820191906000526020600020905b8154815290600101906020018083116112ab57829003601f168201915b50505060028085018054604080516020601f600019610100600187161502019094169590950492830185900485028101850190915281815295969594509092509083018282801561135a5780601f1061132f5761010080835404028352916020019161135a565b820191906000526020600020905b81548152906001019060200180831161133d57829003601f168201915b50505050600383015460048401546005909401549293909260ff82169250610100909104600160a060020a03169087565b600654604080517f3ba0b9a90000000000000000000000000000000000000000000000000000000081529051600092600160a060020a031691633ba0b9a991600480830192602092919082900301818787803b1580156113ea57600080fd5b505af11580156113fe573d6000803e3d6000fd5b505050506040513d602081101561141457600080fd5b505190505b90565b60008181526002602081815260408084208054600382015460048301546005840154600180860180548851610100938216158402600019019091168b9004601f81018b90048b0282018b0190995288815260609a8b9a8d9a8b9a8b9a8b9a600160a060020a039182169a97999290950197949660ff81169695900416939092909188918301828280156114f05780601f106114c5576101008083540402835291602001916114f0565b820191906000526020600020905b8154815290600101906020018083116114d357829003601f168201915b5050885460408051602060026001851615610100026000190190941693909304601f8101849004840282018401909252818152959b508a94509250840190508282801561157e5780601f106115535761010080835404028352916020019161157e565b820191906000526020600020905b81548152906001019060200180831161156157829003601f168201915b505050505094509650965096509650965096509650919395979092949650565b600054600160a060020a031633146115b557600080fd5b6115be8161198a565b50565b600054600160a060020a031633146115d857600080fd5b80600160a060020a0316ff5b600080600180541415156115f757600080fd5b60026001556000841161166b57604080517f08c379a000000000000000000000000000000000000000000000000000000000815260206004820152601860248201527f626f756e7479206d757374206861766520612070726963650000000000000000604482015290519081900360640190fd5b4283116116ff57604080517f08c379a000000000000000000000000000000000000000000000000000000000815260206004820152602760248201527f626f756e7479206d757374206861766520646561646c696e6520696e2074686560448201527f2066757475726500000000000000000000000000000000000000000000000000606482015290519081900360840190fd5b61171784670de0b6b3a764000063ffffffff61196116565b604080513481526020810183905281519293507f1ef0188d67c32c542064a0c1381c5fe9c7bdb4ced211420290d5a5bb99157f0a929081900390910190a1600954600090815260046020908152604091829020349055815160e0810183523381528251601f8b0183900483028101830190935289835291828201918b908b9081908401838280828437820191505050505050815260200187878080601f01602080910402602001604051908101604052809392919081815260200183838082843750505092845250505060208101869052604001600081526000602080830182905260409283018790526009548252600281529190208251815473ffffffffffffffffffffffffffffffffffffffff1916600160a060020a03909116178155828201518051919261185092600185019290910190611a07565b506040820151805161186c916002840191602090910190611a07565b5060608201516003820155608082015160048201805460ff19166001838181111561189357fe5b021790555060a0820151600482018054600160a060020a039092166101000274ffffffffffffffffffffffffffffffffffffffff001990921691909117905560c0909101516005909101556009805460009081526003602090815260408083209290925591548151908152349281019290925280517fa48b7f6d6bbbcc559925fc7b79c198dcfee97702946c0193361174294b103a369281900390910190a16009805460018101909155915050600180559695505050505050565b8181018281101561195b57fe5b92915050565b60008215156119725750600061195b565b5081810281838281151561198257fe5b041461195b57fe5b600160a060020a038116151561199f57600080fd5b60008054604051600160a060020a03808516939216917f8be0079c531659141344cd1fd0a4f28419497f9722a3daafe3b4186f6b6457e091a36000805473ffffffffffffffffffffffffffffffffffffffff1916600160a060020a0392909216919091179055565b828054600181600116156101000203166002900490600052602060002090601f016020900481019282601f10611a4857805160ff1916838001178555611a75565b82800160010185558215611a75579182015b82811115611a75578251825591602001919060010190611a5a565b50611a81929150611a85565b5090565b61141991905b80821115611a815760008155600101611a8b5600a165627a7a72305820f3f6a1f9a82891ce7d25d11437e0c19f4c0dc8bbb3bb6182d9ee819135dd44f70029",
  "source": "pragma solidity ^0.4.24;\n\nimport \"openzeppelin-solidity/contracts/lifecycle/Destructible.sol\";\nimport \"openzeppelin-solidity/contracts/math/SafeMath.sol\";\nimport \"openzeppelin-solidity/contracts/lifecycle/Pausable.sol\";\nimport \"openzeppelin-solidity/contracts/ReentrancyGuard.sol\";\n\nimport \"./BountyToken.sol\";\nimport \"./ExchangeRateOracle.sol\";\n\n/**\n * @title BountyRoot\n * @dev The BountyRoot contract is the main Bounty contract that manages\n * posts, submissions and interaction with related contacts for Oracles and ERC20 tokens\n */\ncontract BountyRoot is Pausable, Destructible, ReentrancyGuard {  \n\n    using SafeMath for uint256;\n    using SafeMath for uint;\n\n    struct Bounty {\n        // uint256 id;\n        address poster;\n        string title;\n        string description;\n        uint256 prize;\n        BountyStatus status;\n        address winner;\n        uint deadline;\n    }\n\n    struct Submission {\n        // uint256 submissionId;\n        address submitter;\n        string submissionHash;\n        bool payTokens;\n        // uint256 bountyId;\n        // bool approved;\n    }\n\n    struct BountySubmissions {\n        uint256 nextId;\n        mapping(uint256 => Submission) submissions;\n    }\n\n    enum BountyStatus { Open, Completed }\n\n    event BountyPosted(uint256 bountyId, uint amount);\n    event NewBountyContract();\n    event AwardedBounty(uint256 bountyId, uint256 submissionId, bool payTokens);\n    event PostedBountySubmission(uint256 bountyId, uint256 submissionId, string submissionHash, bool payTokens);\n    event SentEtherToWinner(uint256 bountyId, uint256 submissionId, address destination, uint amount);\n    event SentTokensToWinner(uint256 bountyId, uint256 submissionId, address destination, uint amount, uint256 tokenAmount, uint exchangeRate);\n    event DebugMessage(uint message);\n    event SetNewBountyTokenContractAddress(address _address);\n    event SetExchangeRateOracleContractAddress(address _address);\n\n    mapping(uint256 => Bounty) public bounties;\n    mapping(uint256 => BountySubmissions) public bountySubmissions;\n    mapping (uint256 => uint) public bountyBalances;\n\n    BountyToken private bountyTokenContract;\n    ExchangeRateOracle private exchangeRateOracleContract;\n\n    address public bountyTokenAddress;\n    address public exchangeRateOracleAddress;\n\n    uint256 public bountyCount;\n\n    modifier onlyPoster(uint _bountyId) {\n        require(msg.sender == bounties[_bountyId].poster);\n        _;\n    }\n\n    modifier onlyOpen(uint _bountyId) {\n        require(bounties[_bountyId].status == BountyStatus.Open);\n        _;\n    }\n\n    modifier isBeforeDeadline(uint _bountyId) {\n        require(now < bounties[_bountyId].deadline);\n        _;\n    }\n\n    /**\n    * @dev Initialises contract\n    */\n    constructor() public {\n\n        emit NewBountyContract();\n    }\n\n    /**\n    * @dev sets the associated ERC20 contract enabling issuance of tokens to bounty winners\n    * @param _address the address of the MTK token contract\n    */\n    function setBountyTokenContractAddress(address _address) external onlyOwner nonReentrant {\n        bountyTokenAddress = _address;\n        bountyTokenContract = BountyToken(_address);\n\n        uint totalSupply = bountyTokenContract.totalSupply();\n        bountyTokenContract.approve(this, totalSupply);\n\n        emit SetNewBountyTokenContractAddress(_address);\n    }  \n\n    /**\n    * @dev sets the associated ExchangeRateOracle contract \n    * @param _address the address of the setExchangeRateOracleAddress contract\n    */\n    function setExchangeRateOracleAddress(address _address) external onlyOwner {\n        exchangeRateOracleAddress = _address;\n        exchangeRateOracleContract = ExchangeRateOracle(_address);\n\n        emit SetExchangeRateOracleContractAddress(_address);\n    } \n\n    /**\n     * @dev this contract sends ether and interacts with other contracts thus needs some Ether\n     */\n    function deposit() external payable {\n        // do nothing\n    }\n    event DebugPostBounty(uint _sent, uint _priceWei);\n    /**\n     * @dev allows anyone to post a bounty\n     * posters can send ether with the post, thus putting winnings in escrow making the bounty more desirable\n     * @param _title the title for the bounty\n     * @param _description the detail describing the bounty\n     * @param _prize the amount in ether to be given to the winner\n     * @return the id of the bounty\n     */\n    function postBounty(string _title, string _description, uint _prize, uint _deadline) external payable nonReentrant returns (uint256) {\n\n        require(_prize > 0, \"bounty must have a price\");\n        require(now < _deadline, \"bounty must have deadline in the future\");\n\n        uint priceWei = _prize.mul(1000000000000000000);\n\n        // if (msg.value > 0) require(msg.value == priceWei);\n        emit DebugPostBounty(msg.value, priceWei);\n\n        bountyBalances[bountyCount] = msg.value;\n\n        bounties[bountyCount] = Bounty({\n            poster: msg.sender,\n            // id: bountyCount,\n            title: _title,\n            description: _description,\n            prize: _prize,\n            status: BountyStatus.Open,\n            winner: 0,\n            deadline: _deadline\n        });\n\n        bountySubmissions[bountyCount].nextId = 0;\n\n        emit BountyPosted(bountyCount, msg.value);\n        bountyCount++;\n\n        return bountyCount - 1;\n    }\n\n    /**\n    * @dev returns bounty details\n    * @param _bountyId the id of the bounty\n    * @return poster, title, description, prize, status, winner\n    */\n    function getBounty(uint256 _bountyId) public view returns (\n        address poster,\n        string title,\n        string description,\n        uint prize,\n        BountyStatus status,\n        address winner,\n        uint deadline\n    ) {\n        return (\n          bounties[_bountyId].poster, \n          bounties[_bountyId].title, \n          bounties[_bountyId].description, \n          bounties[_bountyId].prize, \n          bounties[_bountyId].status, \n          bounties[_bountyId].winner,\n          bounties[_bountyId].deadline\n        );\n    }\n\n    /**\n    * @dev post a bounty submission\n    * @param _bountyId the Id of the bounty you want to submit against\n    * @param _submissionHash the IPFS hash of the submitted code\n    * @param _payTokens submitters can choose to be paid in MTK ERC20 tokens\n    * @return the id of the submission\n     */\n    function postBountySubmission(uint256 _bountyId, string _submissionHash, bool _payTokens) public onlyOpen(_bountyId) isBeforeDeadline(_bountyId) returns(uint256) {\n\n        uint256 submissionId = bountySubmissions[_bountyId].nextId;\n\n        bountySubmissions[_bountyId].submissions[submissionId] = Submission({\n            submitter: msg.sender,\n            submissionHash: _submissionHash,\n            payTokens: _payTokens\n        });\n        bountySubmissions[_bountyId].nextId = submissionId + 1;\n\n        emit PostedBountySubmission(_bountyId, submissionId, _submissionHash, _payTokens);\n\n        return bountySubmissions[_bountyId].nextId - 1;\n    }\n\n    /**\n     * @dev returns a bounty sumbmission\n     * @param _bountyId the id of the bounty\n     * @param _submissionId the id of the submission\n     * @return submitter, submissionHash, payTokens\n     */\n    function getBountySubmission(uint256 _bountyId, uint256 _submissionId) public view returns (\n        address submitter, \n        string submissionHash, \n        bool payTokens)\n    {\n        Submission storage submission = bountySubmissions[_bountyId].submissions[_submissionId];\n        \n        return (\n            submission.submitter,\n            submission.submissionHash,\n            submission.payTokens\n        );\n    }\n    /**\n     * @dev returns the sumbmission count for a given bounty\n     * @param _bountyId the id of the bounty\n     * @return the submission count\n     */\n    function getBountySubmissionCount(uint256 _bountyId) public view returns (uint256 count) {\n        return (bountySubmissions[_bountyId].nextId);\n    }\n\n    /**\n     * @dev awards the bounty to a submitter, sending ether or tokens depending on the submitters preference\n     * @param _bountyId the id of the bounty\n     * @param _submissionId the id of the submission\n     */\n    function awardBounty(uint256 _bountyId, uint256 _submissionId) public payable nonReentrant onlyOpen(_bountyId) onlyPoster(_bountyId) {\n        \n        Bounty storage bounty = bounties[_bountyId];\n        address submitter = bountySubmissions[_bountyId].submissions[_submissionId].submitter;\n\n        bounty.status = BountyStatus.Completed;\n        bounty.winner = submitter;\n\n        bountyBalances[_bountyId] = bountyBalances[_bountyId].add(msg.value);\n\n        uint prize = bounty.prize;\n        uint currentBalance = bountyBalances[_bountyId];\n        uint prizeWei = prize.mul(1000000000000000000);\n\n        // require(currentBalance == prizeWei, \"eth balance should equal the prize\");\n  \n        bool payTokens = bountySubmissions[_bountyId].submissions[_submissionId].payTokens;\n        \n        if (payTokens) {\n\n            uint exchangeRate = exchangeRateOracleContract.exchangeRate();\n            uint256 tokenAmount = exchangeRate.mul(bounty.prize);\n        \n            bountyBalances[_bountyId] = 0;\n            bountyTokenContract.transferFrom(this, submitter, tokenAmount);\n            emit SentTokensToWinner(_bountyId, _submissionId, submitter, bounty.prize, tokenAmount, exchangeRate);\n\n        } else {\n        \n            bountyBalances[_bountyId] = 0;\n            submitter.transfer(bounty.prize);\n            emit SentEtherToWinner(_bountyId, _submissionId, submitter, bounty.prize);\n        }\n\n        emit AwardedBounty(_bountyId, _submissionId, payTokens);\n    }\n\n    /**\n     * @dev utility function to send tokens\n     * @param _to the destination address\n     * @param _amount the amount of tokens\n     */\n    function sendTokens(address _to, uint _amount) public onlyOwner nonReentrant {\n        bountyTokenContract.transferFrom(this, _to, _amount);\n    }\n\n    function getExchangeRate() public view returns (uint) {\n        return exchangeRateOracleContract.exchangeRate();\n    }\n}\n",
  "sourcePath": "/Users/danny/Dev/Projects/crypto/consensys/bounty-dapp/contracts/BountyRoot.sol",
  "compiler": {
    "name": "solc",
    "version": "0.4.24+commit.e67f0147.Emscripten.clang"
  },
  "schemaVersion": "2.0.1",
  "updatedAt": "2018-08-28T10:59:42.029Z"
}