{
  "contractName": "BountyToken",
  "abi": [
    {
      "constant": true,
      "inputs": [],
      "name": "name",
      "outputs": [
        {
          "name": "",
          "type": "string"
        }
      ],
      "payable": false,
      "stateMutability": "view",
      "type": "function"
    },
    {
      "constant": false,
      "inputs": [
        {
          "name": "_spender",
          "type": "address"
        },
        {
          "name": "_value",
          "type": "uint256"
        }
      ],
      "name": "approve",
      "outputs": [
        {
          "name": "",
          "type": "bool"
        }
      ],
      "payable": false,
      "stateMutability": "nonpayable",
      "type": "function"
    },
    {
      "constant": true,
      "inputs": [],
      "name": "totalSupply",
      "outputs": [
        {
          "name": "",
          "type": "uint256"
        }
      ],
      "payable": false,
      "stateMutability": "view",
      "type": "function"
    },
    {
      "constant": false,
      "inputs": [
        {
          "name": "_from",
          "type": "address"
        },
        {
          "name": "_to",
          "type": "address"
        },
        {
          "name": "_value",
          "type": "uint256"
        }
      ],
      "name": "transferFrom",
      "outputs": [
        {
          "name": "",
          "type": "bool"
        }
      ],
      "payable": false,
      "stateMutability": "nonpayable",
      "type": "function"
    },
    {
      "constant": true,
      "inputs": [],
      "name": "decimals",
      "outputs": [
        {
          "name": "",
          "type": "uint8"
        }
      ],
      "payable": false,
      "stateMutability": "view",
      "type": "function"
    },
    {
      "constant": false,
      "inputs": [],
      "name": "unpause",
      "outputs": [],
      "payable": false,
      "stateMutability": "nonpayable",
      "type": "function"
    },
    {
      "constant": true,
      "inputs": [],
      "name": "paused",
      "outputs": [
        {
          "name": "",
          "type": "bool"
        }
      ],
      "payable": false,
      "stateMutability": "view",
      "type": "function"
    },
    {
      "constant": false,
      "inputs": [
        {
          "name": "_spender",
          "type": "address"
        },
        {
          "name": "_subtractedValue",
          "type": "uint256"
        }
      ],
      "name": "decreaseApproval",
      "outputs": [
        {
          "name": "success",
          "type": "bool"
        }
      ],
      "payable": false,
      "stateMutability": "nonpayable",
      "type": "function"
    },
    {
      "constant": true,
      "inputs": [
        {
          "name": "_owner",
          "type": "address"
        }
      ],
      "name": "balanceOf",
      "outputs": [
        {
          "name": "",
          "type": "uint256"
        }
      ],
      "payable": false,
      "stateMutability": "view",
      "type": "function"
    },
    {
      "constant": false,
      "inputs": [],
      "name": "renounceOwnership",
      "outputs": [],
      "payable": false,
      "stateMutability": "nonpayable",
      "type": "function"
    },
    {
      "constant": false,
      "inputs": [],
      "name": "pause",
      "outputs": [],
      "payable": false,
      "stateMutability": "nonpayable",
      "type": "function"
    },
    {
      "constant": true,
      "inputs": [],
      "name": "owner",
      "outputs": [
        {
          "name": "",
          "type": "address"
        }
      ],
      "payable": false,
      "stateMutability": "view",
      "type": "function"
    },
    {
      "constant": true,
      "inputs": [],
      "name": "symbol",
      "outputs": [
        {
          "name": "",
          "type": "string"
        }
      ],
      "payable": false,
      "stateMutability": "view",
      "type": "function"
    },
    {
      "constant": false,
      "inputs": [
        {
          "name": "_to",
          "type": "address"
        },
        {
          "name": "_value",
          "type": "uint256"
        }
      ],
      "name": "transfer",
      "outputs": [
        {
          "name": "",
          "type": "bool"
        }
      ],
      "payable": false,
      "stateMutability": "nonpayable",
      "type": "function"
    },
    {
      "constant": false,
      "inputs": [
        {
          "name": "_spender",
          "type": "address"
        },
        {
          "name": "_addedValue",
          "type": "uint256"
        }
      ],
      "name": "increaseApproval",
      "outputs": [
        {
          "name": "success",
          "type": "bool"
        }
      ],
      "payable": false,
      "stateMutability": "nonpayable",
      "type": "function"
    },
    {
      "constant": true,
      "inputs": [
        {
          "name": "_owner",
          "type": "address"
        },
        {
          "name": "_spender",
          "type": "address"
        }
      ],
      "name": "allowance",
      "outputs": [
        {
          "name": "",
          "type": "uint256"
        }
      ],
      "payable": false,
      "stateMutability": "view",
      "type": "function"
    },
    {
      "constant": false,
      "inputs": [
        {
          "name": "_newOwner",
          "type": "address"
        }
      ],
      "name": "transferOwnership",
      "outputs": [],
      "payable": false,
      "stateMutability": "nonpayable",
      "type": "function"
    },
    {
      "inputs": [],
      "payable": false,
      "stateMutability": "nonpayable",
      "type": "constructor"
    },
    {
      "anonymous": false,
      "inputs": [],
      "name": "NewTokenCreated",
      "type": "event"
    },
    {
      "anonymous": false,
      "inputs": [],
      "name": "Pause",
      "type": "event"
    },
    {
      "anonymous": false,
      "inputs": [],
      "name": "Unpause",
      "type": "event"
    },
    {
      "anonymous": false,
      "inputs": [
        {
          "indexed": true,
          "name": "previousOwner",
          "type": "address"
        }
      ],
      "name": "OwnershipRenounced",
      "type": "event"
    },
    {
      "anonymous": false,
      "inputs": [
        {
          "indexed": true,
          "name": "previousOwner",
          "type": "address"
        },
        {
          "indexed": true,
          "name": "newOwner",
          "type": "address"
        }
      ],
      "name": "OwnershipTransferred",
      "type": "event"
    },
    {
      "anonymous": false,
      "inputs": [
        {
          "indexed": true,
          "name": "owner",
          "type": "address"
        },
        {
          "indexed": true,
          "name": "spender",
          "type": "address"
        },
        {
          "indexed": false,
          "name": "value",
          "type": "uint256"
        }
      ],
      "name": "Approval",
      "type": "event"
    },
    {
      "anonymous": false,
      "inputs": [
        {
          "indexed": true,
          "name": "from",
          "type": "address"
        },
        {
          "indexed": true,
          "name": "to",
          "type": "address"
        },
        {
          "indexed": false,
          "name": "value",
          "type": "uint256"
        }
      ],
      "name": "Transfer",
      "type": "event"
    }
  ],
  "bytecode": "0x60806040526003805460a060020a60ff021916905534801561002057600080fd5b50604080518082018252600b81527f426f756e7479546f6b656e0000000000000000000000000000000000000000006020808301918252835180850190945260038085527f42544b0000000000000000000000000000000000000000000000000000000000918501919091528054600160a060020a0319163317905581519192916012916100b1916004919061012c565b5081516100c590600590602085019061012c565b506006805460ff191660ff9290921691909117905550506a108b2a2c280290940000006001819055336000908152602081905260408082209290925590517f13f729097aa1a6014608304ee42816e6e977baf3dd079e14c0a9c96a7f3e969b9190a16101c7565b828054600181600116156101000203166002900490600052602060002090601f016020900481019282601f1061016d57805160ff191683800117855561019a565b8280016001018555821561019a579182015b8281111561019a57825182559160200191906001019061017f565b506101a69291506101aa565b5090565b6101c491905b808211156101a657600081556001016101b0565b90565b610bdd806101d66000396000f3006080604052600436106100f05763ffffffff7c010000000000000000000000000000000000000000000000000000000060003504166306fdde0381146100f5578063095ea7b31461017f57806318160ddd146101b757806323b872dd146101de578063313ce567146102085780633f4ba83a146102335780635c975abb1461024a578063661884631461025f57806370a0823114610283578063715018a6146102a45780638456cb59146102b95780638da5cb5b146102ce57806395d89b41146102ff578063a9059cbb14610314578063d73dd62314610338578063dd62ed3e1461035c578063f2fde38b14610383575b600080fd5b34801561010157600080fd5b5061010a6103a4565b6040805160208082528351818301528351919283929083019185019080838360005b8381101561014457818101518382015260200161012c565b50505050905090810190601f1680156101715780820380516001836020036101000a031916815260200191505b509250505060405180910390f35b34801561018b57600080fd5b506101a3600160a060020a03600435166024356103db565b604080519115158252519081900360200190f35b3480156101c357600080fd5b506101cc610406565b60408051918252519081900360200190f35b3480156101ea57600080fd5b506101a3600160a060020a036004358116906024351660443561040c565b34801561021457600080fd5b5061021d610439565b6040805160ff9092168252519081900360200190f35b34801561023f57600080fd5b5061024861043e565b005b34801561025657600080fd5b506101a36104b6565b34801561026b57600080fd5b506101a3600160a060020a03600435166024356104c6565b34801561028f57600080fd5b506101cc600160a060020a03600435166104ea565b3480156102b057600080fd5b50610248610505565b3480156102c557600080fd5b50610248610573565b3480156102da57600080fd5b506102e36105f0565b60408051600160a060020a039092168252519081900360200190f35b34801561030b57600080fd5b5061010a6105ff565b34801561032057600080fd5b506101a3600160a060020a0360043516602435610636565b34801561034457600080fd5b506101a3600160a060020a036004351660243561065a565b34801561036857600080fd5b506101cc600160a060020a036004358116906024351661067e565b34801561038f57600080fd5b50610248600160a060020a03600435166106a9565b60408051808201909152600b81527f426f756e7479546f6b656e000000000000000000000000000000000000000000602082015281565b60035460009060a060020a900460ff16156103f557600080fd5b6103ff83836106cc565b9392505050565b60015490565b60035460009060a060020a900460ff161561042657600080fd5b610431848484610732565b949350505050565b601281565b600354600160a060020a0316331461045557600080fd5b60035460a060020a900460ff16151561046d57600080fd5b6003805474ff0000000000000000000000000000000000000000191690556040517f7805862f689e2f13df9f062ff482ad3ad112aca9e0847911ed832e158c525b3390600090a1565b60035460a060020a900460ff1681565b60035460009060a060020a900460ff16156104e057600080fd5b6103ff83836108a7565b600160a060020a031660009081526020819052604090205490565b600354600160a060020a0316331461051c57600080fd5b600354604051600160a060020a03909116907ff8df31144d9c2f0f6b59d69b8b98abd5459d07f2742c4df920b25aae33c6482090600090a26003805473ffffffffffffffffffffffffffffffffffffffff19169055565b600354600160a060020a0316331461058a57600080fd5b60035460a060020a900460ff16156105a157600080fd5b6003805474ff0000000000000000000000000000000000000000191660a060020a1790556040517f6985a02210a168e66602d3235cb6db0e70f92b3ba4d376a33c0f3d9434bff62590600090a1565b600354600160a060020a031681565b60408051808201909152600381527f42544b0000000000000000000000000000000000000000000000000000000000602082015281565b60035460009060a060020a900460ff161561065057600080fd5b6103ff8383610996565b60035460009060a060020a900460ff161561067457600080fd5b6103ff8383610a75565b600160a060020a03918216600090815260026020908152604080832093909416825291909152205490565b600354600160a060020a031633146106c057600080fd5b6106c981610b0e565b50565b336000818152600260209081526040808320600160a060020a038716808552908352818420869055815186815291519394909390927f8c5be1e5ebec7d5bd14f71427d1e84f3dd0314c0f7b2291e5b200ac8c7c3b925928290030190a350600192915050565b600160a060020a03831660009081526020819052604081205482111561075757600080fd5b600160a060020a038416600090815260026020908152604080832033845290915290205482111561078757600080fd5b600160a060020a038316151561079c57600080fd5b600160a060020a0384166000908152602081905260409020546107c5908363ffffffff610b8c16565b600160a060020a0380861660009081526020819052604080822093909355908516815220546107fa908363ffffffff610b9e16565b600160a060020a0380851660009081526020818152604080832094909455918716815260028252828120338252909152205461083c908363ffffffff610b8c16565b600160a060020a03808616600081815260026020908152604080832033845282529182902094909455805186815290519287169391927fddf252ad1be2c89b69c2b068fc378daa952ba7f163c4a11628f55a4df523b3ef929181900390910190a35060019392505050565b336000908152600260209081526040808320600160a060020a03861684529091528120548083106108fb57336000908152600260209081526040808320600160a060020a0388168452909152812055610930565b61090b818463ffffffff610b8c16565b336000908152600260209081526040808320600160a060020a03891684529091529020555b336000818152600260209081526040808320600160a060020a0389168085529083529281902054815190815290519293927f8c5be1e5ebec7d5bd14f71427d1e84f3dd0314c0f7b2291e5b200ac8c7c3b925929181900390910190a35060019392505050565b336000908152602081905260408120548211156109b257600080fd5b600160a060020a03831615156109c757600080fd5b336000908152602081905260409020546109e7908363ffffffff610b8c16565b3360009081526020819052604080822092909255600160a060020a03851681522054610a19908363ffffffff610b9e16565b600160a060020a038416600081815260208181526040918290209390935580518581529051919233927fddf252ad1be2c89b69c2b068fc378daa952ba7f163c4a11628f55a4df523b3ef9281900390910190a350600192915050565b336000908152600260209081526040808320600160a060020a0386168452909152812054610aa9908363ffffffff610b9e16565b336000818152600260209081526040808320600160a060020a0389168085529083529281902085905580519485525191937f8c5be1e5ebec7d5bd14f71427d1e84f3dd0314c0f7b2291e5b200ac8c7c3b925929081900390910190a350600192915050565b600160a060020a0381161515610b2357600080fd5b600354604051600160a060020a038084169216907f8be0079c531659141344cd1fd0a4f28419497f9722a3daafe3b4186f6b6457e090600090a36003805473ffffffffffffffffffffffffffffffffffffffff1916600160a060020a0392909216919091179055565b600082821115610b9857fe5b50900390565b81810182811015610bab57fe5b929150505600a165627a7a72305820c8deeb3954aa0de5f49804a937168838afa6bd69a585554fe558bfc3d507224d0029",
  "source": "pragma solidity ^0.4.24;\n\nimport \"openzeppelin-solidity/contracts/token/ERC20/PausableToken.sol\";\nimport \"openzeppelin-solidity/contracts/token/ERC20/DetailedERC20.sol\";\n\n/**\n * @title BountyToken\n * @dev The BountyToken contract is an implementation of the ERC20 token standard\n */\ncontract BountyToken is PausableToken, DetailedERC20 {\n\n    string public constant name = \"BountyToken\";\n    string public constant symbol = \"BTK\";\n    uint8 public constant decimals = 18;\n\n    event NewTokenCreated();\n\n    /**\n    * @dev Initialises new token with initial parameters\n    */ \n    constructor() DetailedERC20(name, symbol, decimals)\n    public \n    {\n        totalSupply_ = 20000000000000000000000000;\n        balances[msg.sender] = totalSupply_;\n\n        emit NewTokenCreated();\n        \n    }\n}\n",
  "sourcePath": "/Users/danny/Dev/Projects/crypto/consensys/bounty-dapp/contracts/BountyToken.sol",
  "compiler": {
    "name": "solc",
    "version": "0.4.24+commit.e67f0147.Emscripten.clang"
  },
  "schemaVersion": "2.0.1",
  "updatedAt": "2018-08-28T11:48:31.084Z"
}