{
  "contractName": "ExchangeRateOracle",
  "abi": [
    {
      "constant": true,
      "inputs": [],
      "name": "exchangeRate",
      "outputs": [
        {
          "name": "",
          "type": "uint256"
        }
      ],
      "payable": false,
      "stateMutability": "view",
      "type": "function"
    },
    {
      "constant": false,
      "inputs": [],
      "name": "renounceOwnership",
      "outputs": [],
      "payable": false,
      "stateMutability": "nonpayable",
      "type": "function"
    },
    {
      "constant": false,
      "inputs": [],
      "name": "destroy",
      "outputs": [],
      "payable": false,
      "stateMutability": "nonpayable",
      "type": "function"
    },
    {
      "constant": true,
      "inputs": [],
      "name": "owner",
      "outputs": [
        {
          "name": "",
          "type": "address"
        }
      ],
      "payable": false,
      "stateMutability": "view",
      "type": "function"
    },
    {
      "constant": true,
      "inputs": [],
      "name": "oraclizeId",
      "outputs": [
        {
          "name": "",
          "type": "bytes32"
        }
      ],
      "payable": false,
      "stateMutability": "view",
      "type": "function"
    },
    {
      "constant": false,
      "inputs": [
        {
          "name": "_newOwner",
          "type": "address"
        }
      ],
      "name": "transferOwnership",
      "outputs": [],
      "payable": false,
      "stateMutability": "nonpayable",
      "type": "function"
    },
    {
      "constant": false,
      "inputs": [
        {
          "name": "_recipient",
          "type": "address"
        }
      ],
      "name": "destroyAndSend",
      "outputs": [],
      "payable": false,
      "stateMutability": "nonpayable",
      "type": "function"
    },
    {
      "inputs": [
        {
          "name": "_initialExchangeRate",
          "type": "uint256"
        }
      ],
      "payable": false,
      "stateMutability": "nonpayable",
      "type": "constructor"
    },
    {
      "anonymous": false,
      "inputs": [
        {
          "indexed": false,
          "name": "message",
          "type": "string"
        }
      ],
      "name": "LogConstructorInitiated",
      "type": "event"
    },
    {
      "anonymous": false,
      "inputs": [
        {
          "indexed": false,
          "name": "exchangeRate",
          "type": "uint256"
        }
      ],
      "name": "LogPriceUpdated",
      "type": "event"
    },
    {
      "anonymous": false,
      "inputs": [
        {
          "indexed": false,
          "name": "description",
          "type": "string"
        }
      ],
      "name": "LogNewOraclizeQuery",
      "type": "event"
    },
    {
      "anonymous": false,
      "inputs": [
        {
          "indexed": true,
          "name": "previousOwner",
          "type": "address"
        }
      ],
      "name": "OwnershipRenounced",
      "type": "event"
    },
    {
      "anonymous": false,
      "inputs": [
        {
          "indexed": true,
          "name": "previousOwner",
          "type": "address"
        },
        {
          "indexed": true,
          "name": "newOwner",
          "type": "address"
        }
      ],
      "name": "OwnershipTransferred",
      "type": "event"
    },
    {
      "constant": false,
      "inputs": [],
      "name": "deposit",
      "outputs": [],
      "payable": true,
      "stateMutability": "payable",
      "type": "function"
    },
    {
      "constant": false,
      "inputs": [
        {
          "name": "id",
          "type": "bytes32"
        },
        {
          "name": "result",
          "type": "string"
        }
      ],
      "name": "__callback",
      "outputs": [],
      "payable": false,
      "stateMutability": "nonpayable",
      "type": "function"
    },
    {
      "constant": false,
      "inputs": [
        {
          "name": "myid",
          "type": "bytes32"
        },
        {
          "name": "result",
          "type": "string"
        },
        {
          "name": "proof",
          "type": "bytes"
        }
      ],
      "name": "__callback",
      "outputs": [],
      "payable": false,
      "stateMutability": "nonpayable",
      "type": "function"
    },
    {
      "constant": false,
      "inputs": [],
      "name": "updatePrice",
      "outputs": [],
      "payable": true,
      "stateMutability": "payable",
      "type": "function"
    }
  ],
  "bytecode": "0x608060405234801561001057600080fd5b50604051602080611253833981016040818152915160058054600160a060020a03199081163317909155600682905560008054909116736f485c8bf6fc43ea212e93bbf8ce046c7f1cb4751790556020808352604b908301527f436f6e7374727563746f722077617320696e697469617465642e2043616c6c20838301527f27757064617465507269636528292720746f2073656e6420746865204f72616360608301527f6c697a652051756572792e000000000000000000000000000000000000000000608083015291517f11a3fca63f87bd67d7f9f72b744acc8be2193705e7a734ac3a773d35d259e87b9181900360a00190a15061113d806101166000396000f3006080604052600436106100955763ffffffff60e060020a60003504166327dc297e811461009a57806338bbfa50146100fa5780633ba0b9a914610196578063673a7e28146101bd578063715018a6146101c557806383197ef0146101da5780638da5cb5b146101ef5780639a76efeb14610220578063d0e30db014610235578063f2fde38b1461023d578063f5074f411461025e575b600080fd5b3480156100a657600080fd5b5060408051602060046024803582810135601f81018590048502860185019096528585526100f895833595369560449491939091019190819084018382808284375094975061027f9650505050505050565b005b34801561010657600080fd5b5060408051602060046024803582810135601f81018590048502860185019096528585526100f895833595369560449491939091019190819084018382808284375050604080516020601f89358b018035918201839004830284018301909452808352979a9998810197919650918201945092508291508401838280828437509497506102e19650505050505050565b3480156101a257600080fd5b506101ab6102e6565b60408051918252519081900360200190f35b6100f86102ec565b3480156101d157600080fd5b506100f8610436565b3480156101e657600080fd5b506100f8610497565b3480156101fb57600080fd5b506102046104bc565b60408051600160a060020a039092168252519081900360200190f35b34801561022c57600080fd5b506101ab6104cb565b6100f86104d1565b34801561024957600080fd5b506100f8600160a060020a03600435166104d3565b34801561026a57600080fd5b506100f8600160a060020a03600435166104f3565b610287610516565b600160a060020a0316331461029b57600080fd5b6102a6816008610708565b600681905560408051918252517ff382320ca3328eca73b923efa9b8df7bd6ea405d6d4fa855a00db3ee406361c99181900360200190a15050565b505050565b60065481565b6040805160208082526035908201527f4f7261636c697a65207175657279207761732073656e742c207374616e64696e818301527f6720627920666f722074686520616e737765722e2e0000000000000000000000606082015290517f621c2856e3b87f81235f8ac8a22bbb40a0142961960710d00b2b6c380902b57e9181900360800190a16104336040805190810160405280600381526020017f55524c0000000000000000000000000000000000000000000000000000000000815250608060405190810160405280604581526020017f6a736f6e2868747470733a2f2f6170692e62696e616e63652e636f6d2f61706981526020017f2f76332f7469636b65722f70726963653f73796d626f6c3d524550455448292e81526020017f70726963650000000000000000000000000000000000000000000000000000008152506108c2565b50565b600554600160a060020a0316331461044d57600080fd5b600554604051600160a060020a03909116907ff8df31144d9c2f0f6b59d69b8b98abd5459d07f2742c4df920b25aae33c6482090600090a260058054600160a060020a0319169055565b600554600160a060020a031633146104ae57600080fd5b600554600160a060020a0316ff5b600554600160a060020a031681565b60075481565b565b600554600160a060020a031633146104ea57600080fd5b61043381610cb5565b600554600160a060020a0316331461050a57600080fd5b80600160a060020a0316ff5b60008054600160a060020a03161580610541575060005461053f90600160a060020a0316610d26565b155b15610552576105506000610d2a565b505b6000809054906101000a9004600160a060020a0316600160a060020a03166338cc48316040518163ffffffff1660e060020a028152600401602060405180830381600087803b1580156105a457600080fd5b505af11580156105b8573d6000803e3d6000fd5b505050506040513d60208110156105ce57600080fd5b5051600154600160a060020a03908116911614610683576000809054906101000a9004600160a060020a0316600160a060020a03166338cc48316040518163ffffffff1660e060020a028152600401602060405180830381600087803b15801561063757600080fd5b505af115801561064b573d6000803e3d6000fd5b505050506040513d602081101561066157600080fd5b505160018054600160a060020a031916600160a060020a039092169190911790555b600160009054906101000a9004600160a060020a0316600160a060020a031663c281d19e6040518163ffffffff1660e060020a028152600401602060405180830381600087803b1580156106d657600080fd5b505af11580156106ea573d6000803e3d6000fd5b505050506040513d602081101561070057600080fd5b505190505b90565b6000828180805b83518110156108a55783517f30000000000000000000000000000000000000000000000000000000000000009085908390811061074857fe5b90602001015160f860020a900460f860020a027effffffffffffffffffffffffffffffffffffffffffffffffffffffffffffff1916101580156107ee575083517f3900000000000000000000000000000000000000000000000000000000000000908590839081106107b657fe5b90602001015160f860020a900460f860020a027effffffffffffffffffffffffffffffffffffffffffffffffffffffffffffff191611155b1561084757811561080d57851515610805576108a5565b600019909501945b600a830292506030848281518110151561082357fe5b90602001015160f860020a900460f860020a0260f860020a9004038301925061089d565b838181518110151561085557fe5b90602001015160f860020a900460f860020a027effffffffffffffffffffffffffffffffffffffffffffffffffffffffffffff1916602e60f860020a02141561089d57600191505b60010161070f565b60008611156108b75785600a0a830292505b509095945050505050565b600080548190600160a060020a031615806108ef57506000546108ed90600160a060020a0316610d26565b155b15610900576108fe6000610d2a565b505b6000809054906101000a9004600160a060020a0316600160a060020a03166338cc48316040518163ffffffff1660e060020a028152600401602060405180830381600087803b15801561095257600080fd5b505af1158015610966573d6000803e3d6000fd5b505050506040513d602081101561097c57600080fd5b5051600154600160a060020a03908116911614610a31576000809054906101000a9004600160a060020a0316600160a060020a03166338cc48316040518163ffffffff1660e060020a028152600401602060405180830381600087803b1580156109e557600080fd5b505af11580156109f9573d6000803e3d6000fd5b505050506040513d6020811015610a0f57600080fd5b505160018054600160a060020a031916600160a060020a039092169190911790555b6001546040517f524f3889000000000000000000000000000000000000000000000000000000008152602060048201818152875160248401528751600160a060020a039094169363524f388993899383926044909201919085019080838360005b83811015610aaa578181015183820152602001610a92565b50505050905090810190601f168015610ad75780820380516001836020036101000a031916815260200191505b5092505050602060405180830381600087803b158015610af657600080fd5b505af1158015610b0a573d6000803e3d6000fd5b505050506040513d6020811015610b2057600080fd5b50519050670de0b6b3a764000062030d403a0201811115610b445760009150610cae565b6001546040517fadf59f99000000000000000000000000000000000000000000000000000000008152600060048201818152606060248401908152885160648501528851600160a060020a039095169463adf59f99948794938b938b939192909160448201916084019060208701908083838b5b83811015610bd0578181015183820152602001610bb8565b50505050905090810190601f168015610bfd5780820380516001836020036101000a031916815260200191505b50838103825284518152845160209182019186019080838360005b83811015610c30578181015183820152602001610c18565b50505050905090810190601f168015610c5d5780820380516001836020036101000a031916815260200191505b50955050505050506020604051808303818588803b158015610c7e57600080fd5b505af1158015610c92573d6000803e3d6000fd5b50505050506040513d6020811015610ca957600080fd5b505191505b5092915050565b600160a060020a0381161515610cca57600080fd5b600554604051600160a060020a038084169216907f8be0079c531659141344cd1fd0a4f28419497f9722a3daafe3b4186f6b6457e090600090a360058054600160a060020a031916600160a060020a0392909216919091179055565b3b90565b6000610d34610d3a565b92915050565b600080610d5a731d3b2638a7cc9f2cb3d298a3da7a90b67e5506ed610d26565b1115610dcb5760008054600160a060020a031916731d3b2638a7cc9f2cb3d298a3da7a90b67e5506ed17905560408051808201909152600b81527f6574685f6d61696e6e65740000000000000000000000000000000000000000006020820152610dc390611062565b506001610705565b6000610dea73c03a2615d5efaf5f49f60b7bb6583eaec212fdf1610d26565b1115610e535760008054600160a060020a03191673c03a2615d5efaf5f49f60b7bb6583eaec212fdf117905560408051808201909152600c81527f6574685f726f707374656e3300000000000000000000000000000000000000006020820152610dc390611062565b6000610e7273b7a07bcf2ba2f2703b24c0691b5278999c59ac7e610d26565b1115610edb5760008054600160a060020a03191673b7a07bcf2ba2f2703b24c0691b5278999c59ac7e17905560408051808201909152600981527f6574685f6b6f76616e00000000000000000000000000000000000000000000006020820152610dc390611062565b6000610efa73146500cfd35b22e4a392fe0adc06de1a1368ed48610d26565b1115610f635760008054600160a060020a03191673146500cfd35b22e4a392fe0adc06de1a1368ed4817905560408051808201909152600b81527f6574685f72696e6b6562790000000000000000000000000000000000000000006020820152610dc390611062565b6000610f82736f485c8bf6fc43ea212e93bbf8ce046c7f1cb475610d26565b1115610fb6575060008054600160a060020a031916736f485c8bf6fc43ea212e93bbf8ce046c7f1cb4751790556001610705565b6000610fd57320e12a1f859b3feae5fb2a0a32c18f5a65555bbf610d26565b1115611009575060008054600160a060020a0319167320e12a1f859b3feae5fb2a0a32c18f5a65555bbf1790556001610705565b60006110287351efaf4c8b3c9afbd5ab9f4bbc82784ab6ef8faa610d26565b111561105c575060008054600160a060020a0319167351efaf4c8b3c9afbd5ab9f4bbc82784ab6ef8faa1790556001610705565b50600090565b8051611075906002906020840190611079565b5050565b828054600181600116156101000203166002900490600052602060002090601f016020900481019282601f106110ba57805160ff19168380011785556110e7565b828001600101855582156110e7579182015b828111156110e75782518255916020019190600101906110cc565b506110f39291506110f7565b5090565b61070591905b808211156110f357600081556001016110fd5600a165627a7a72305820a4e83aa16eba3c39920ee9cf7c0aac1bccf8e0c4a07fb793e2da642c372230080029",
  "source": "pragma solidity ^0.4.24;\n\nimport \"./oraclize/usingOraclize.sol\";\nimport \"openzeppelin-solidity/contracts/math/SafeMath.sol\";\nimport \"openzeppelin-solidity/contracts/lifecycle/Destructible.sol\";\n\n/**\n * @title ExchangeRateOracle\n * @dev The ExchangeRateOracle contract provides the current exchange rate from Ether to MTK\n */\ncontract ExchangeRateOracle is usingOraclize, Destructible {\n\n    using SafeMath for uint256;\n    using SafeMath for uint;\n\n    uint public exchangeRate;\n    bytes32 public oraclizeId;\n\n    event LogConstructorInitiated(string message);\n    event LogPriceUpdated(uint exchangeRate);\n    event LogNewOraclizeQuery(string description);\n\n\n    function deposit() external payable {\n        // do nothing\n    }\n\n    /**\n    * @dev Initialises new oracle with the initial exchange rate and the Oracle Address Resolver for debugging\n    */ \n    constructor(uint _initialExchangeRate) public {\n        exchangeRate = _initialExchangeRate;\n        OAR = OraclizeAddrResolverI(0x6f485C8BF6fc43eA212E93BBF8ce046C7f1cb475);\n\n        // updatePrice();\n\n        emit LogConstructorInitiated(\"Constructor was initiated. Call 'updatePrice()' to send the Oraclize Query.\");\n    }\n\n    /**\n    * @dev the callback function is called when the oracle provides the requested information\n    * @param id the id for the specific update request\n    * @param result the result of the query\n    */ \n    function __callback(bytes32 id, string result) public {\n        if (msg.sender != oraclize_cbAddress()) revert();\n        exchangeRate = parseInt(result, 8);\n        emit LogPriceUpdated(exchangeRate);\n    }\n\n    /**\n     * @dev initialised an price update\n     */\n    function updatePrice() public payable {\n        // if (oraclize_getPrice(\"URL\") > this.balance) {\n        //     emit LogNewOraclizeQuery(\"Oraclize query was NOT sent, please add some ETH to cover for the query fee\");\n        // } else {\n            emit LogNewOraclizeQuery(\"Oraclize query was sent, standing by for the answer..\");\n            oraclize_query(\"URL\", \"json(https://api.binance.com/api/v3/ticker/price?symbol=REPETH).price\");\n        // }\n    }\n}",
  "sourcePath": "/Users/danny/Dev/Projects/crypto/consensys/bounty-dapp/contracts/ExchangeRateOracle.sol",
  "compiler": {
    "name": "solc",
    "version": "0.4.24+commit.e67f0147.Emscripten.clang"
  },
  "schemaVersion": "2.0.1",
  "updatedAt": "2018-08-28T12:01:22.220Z"
}